:020000040808EA
:1000000000000808FC1A0808000004000A000501A6
:0800100004026C000000000076
:10001800AC16080809480A4908B5884205D0094AB3
:10002800824202D0121A01F073FA0748074A0021E7
:10003800121A01F078FA064808BD00BF0004002033
:10004800641A08086C0400206C040020240A0020AC
:10005800240A002070B500F0BBFF074B074C1E4672
:10006800E41AA4080025A54204D056F8253098477C
:100078000135F8E770BD00BF341A0808601A08088F
:1000880000F036BA08B500F02BFABDE8084000F0D9
:100098005DBF00F0A5BB0078B0FA80F0400970475A
:1000A8000123037070470000F0B5012185B00646B2
:1000B80000F0AAFDA0F13005072D04464CD82D49C3
:1000C800684600F029FD6946304600F08BFD07467A
:1000D800684600F0DAFC37B1ADB22846032100F0DB
:1000E800D7FF284635E02449684600F015FD6946E3
:1000F800304600F077FD0746684600F0C6FC0FB1B1
:10010800263C20E01D49684600F006FD6946304659
:1001180000F068FD0746684600F0B7FC1FB1052DE2
:100128001DDC183C0FE01649684600F0F5FC304627
:10013800694600F057FD0646684600F0A6FC8EB1F9
:10014800052D12DC123CA4B22046032100F0A0FFCA
:10015800204600F0C7FF0AE04FF0FF3007E06FF0DD
:10016800020004E06FF0010001E06FF0030005B049
:10017800F0BD00BFC0160808C2160808C416080853
:10018800C6160808F0B5012185B0054600F03CFD0B
:10019800A0F13004072C67D80723032229466846B4
:1001A80000F034FD3849684600F0F4FC064668461D
:1001B80000F06BFC7EB9062303222946684600F04E
:1001C80025FD3249684600F0E5FC0746684600F020
:1001D8005CFC0FB94BE001262D49684600F09CFCF9
:1001E8006946284600F0FEFC0746684600F04DFCCC
:1001F8007FBB2849684600F08FFC6946284600F016
:10020800F1FC0746684600F040FC0FB10A3420E0D4
:100218002149684600F080FC6946284600F0E2FC67
:100228000746684600F031FC1FB1052C22DC183463
:100238000FE01A49684600F06FFC2846694600F04E
:10024800D1FC0546684600F020FCB5B1052C17DC4A
:100258001E34A4B20121204600F01AFF2046314680
:1002680000F027FF01200DE04FF0FF300AE06FF0AB
:10027800010007E06FF0030004E06FF0020001E006
:100288006FF0040005B0F0BDC8160808CD160808C0
:10029800C0160808C2160808C4160808C6160808B2
:1002A8007FB50121054600F0AFFCA0F13003072B14
:1002B800044636D81E49684600F02EFC6946284692
:1002C80000F090FC0646684600F0DFFB16B16FF0C0
:1002D80002002BE01749684600F01EFC69462846D4
:1002E80000F080FC0646684600F0CFFB16B1A4F18A
:1002F800260012E01049684600F00EFC28466946C0
:1003080000F070FC0546684600F0BFFB65B1A4F13B
:100318003203032BDBD8A4F1180080B200F0F5FEFD
:1003280004E04FF0FF3001E06FF0010004B070BD51
:10033800C0160808C2160808C4160808F0B506460C
:1003480089B001460322684600F088FC0223002297
:10035800314604A800F05AFC5B4904A800F01AFCD6
:10036800044604A800F091FB002C46D12246022343
:10037800314604A800F04AFC544904A800F00AFCDD
:10038800044604A800F081FB0121002C4FD130461F
:1003980000F03AFCA0F13005072D044600F28280F7
:1003A8004B4904A800F0B8FB04A9304600F01AFC39
:1003B800074604A800F069FB0FB1ACB251E045490B
:1003C80004A800F0A9FB04A9304600F00BFC07467E
:1003D80004A800F05AFB0FB1263C41E03A4602233C
:1003E800314604A800F012FC374904A800F0D2FBFB
:1003F800074604A800F049FB4FB10121132000F083
:1004080047FE684600F031FC0146132032E03A46C8
:100418000223314604A800F0F9FB2C4904A800F097
:10042800B9FB074604A800F030FB4FB101211220A8
:1004380000F02EFE684600F018FC0146122019E074
:10044800254904A800F068FB04A9304600F0CAFB5F
:10045800074604A800F019FB87B1032D25DC183CDA
:10046800A4B20121204600F013FE684600F0FDFB0F
:100478000146204600F060FE01241EE0174904A84A
:1004880000F04AFB304604A900F0ACFB064604A87D
:1004980000F0FBFA66B1A4F13403012B0BD805F187
:1004A8001E04DDE74FF0FF3407E06FF0020404E0BC
:1004B8006FF0010401E06FF00304684600F0E5FA0C
:1004C800204609B0F0BD00BFD1160808D4160808A8
:1004D800C0160808C2160808C4160808C616080870
:1004E800704700000246014800F0C4B951080808E6
:1004F80008B508490848FFF7F5FF08490848FFF715
:10050800F1FF08490848FFF7EDFF08490848FFF7D9
:10051800E9FF08BDB1000808D71608088D010808CA
:10052800E3160808A9020808F01608084503080891
:10053800FB16080808B500F02BF800F06DFD002345
:100548001A460A2100F070FD00F066FD00231A46E5
:10055800032100F071FDBDE80840012000F018B942
:1005680008B5024B1B681B6B019308BDD00104083A
:1005780008B5024B1B685B68019308BD9C01040821
:1005880008B5024B1B685B69019308BD9C01040810
:1005980008B5024B1B681B68019308BDB00104082D
:1005A80008B5024B1B685B68019308BDB0010408DD
:1005B80008B5024B1B689B68019308BDB00104088D
:1005C80008B5024B1B68DB68019308BDB00104083D
:1005D80008B5024B1B681B69019308BDB0010408EC
:1005E80008B5024B1B685B69019308BDB00104089C
:1005F80008B5024B1B689B6A019308BDB00104084B
:1006080008B5024B1B681B6B019308BDB0010408B9
:1006180008B5024B1B689B6F019308BDB001040825
:1006280008B5024B1B681B6A019308BDAC0104089E
:1006380008B5024B1B685B6A019308BDAC0104084E
:1006480008B5024B1B689B6A019308BDAC010408FE
:1006580008B5024B1B68DB6A019308BDAC010408AE
:1006680008B5024B1B681B6B019308BDAC0104085D
:1006780008B5024B1B685B6B019308BDAC0104080D
:1006880008B5024B1B681B6C019308BDAC0104083C
:1006980008B5024B1B68DB69019308BDB401040867
:1006A80008B5024B1B681B6A019308BDB401040816
:1006B80008B5024B1B689B69019308BDC401040877
:1006C80008B5024B1B685B6A019308BDC4010408A6
:1006D80008B5024B1B689B6A019308BDC401040856
:1006E80008B5024B1B68DB6A019308BDC401040806
:1006F80008B5024B1B681B6B019308BDC4010408B5
:1007080008B5024B1B685B6B019308BDC401040864
:1007180008B5024B1B689B6B019308BDC401040814
:1007280008B5024B1B681B6C019308BDC401040883
:1007380008B5024B1B681B68019308BD1C0006081E
:1007480008B5024B1B681B69019308BD1C0006080D
:1007580008B5024B1B685B69019308BD1C000608BD
:1007680008B5024B1B689B69019308BD1C0006086D
:1007780008B5024B1B68DB69019308BD1C0006081D
:1007880008B5024B1B681B6A019308BD1C000608CC
:1007980008B5024B1B685B68019308BDA4010408F7
:1007A80008B5024B1B685B6E019308BDA4010408E1
:1007B80008B5024B1B689B6E019308BDA401040891
:1007C80008B5024B1B685B68019308BDCC0104089F
:1007D80008B5024B1B681B69019308BDC8010408D2
:1007E80008B5024B1B685B68019308BDA0010408AB
:1007F80008B5024B1B689B68019308BDA00104085B
:10080800002211461046FFF7E3BF000038B50B4D34
:10081800282422460021284600F085FE4FF0FF33A9
:100828006B602C80064D074B2846224640F8043B57
:10083800002100F078FEAC8038BD00BF9C04002089
:10084800700400201017080810B588B004466846E0
:1008580000F062F9694604A800F080F904A8A047EE
:10086800044604A800F011F9684600F00EF9204685
:1008780008B010BDF0B507460E46154685B01024E1
:1008880022460021684600F04EFE002269461046C6
:10089800ADF80040029703960195FFF791FF05B068
:1008A800F0BD7047F8B5064615460C468F18BC4291
:1008B80006D0336814F8011B9B6830469847F6E762
:1008C8002846F8BD0022007CFFF7AABE0021007C64
:1008D800FFF7AEBE0021007CFFF7B2BE0021007C0E
:1008E800FFF7B6BE0021007CFFF7BABE10B504467C
:1008F800FFF7CFFB204610BD10B5044608464FF45D
:100908007A73A360044B0021207461602360FFF7B1
:10091800B7FE204610BD00BF1C1708080021007C48
:10092800FFF7A6BE704710B50446FFF7B2FB204696
:1009380010BDF8B50F4600F10806051D002416F88D
:10094800011D0A22384600F080F8AE42044407D060
:10095800002CF4D02E21384600F04AF80444EEE783
:100968002046F8BD10B59DF8084044EA032343EA41
:10097800024242EA0161416010BD000037B5044DF2
:1009880005609DF818500095FFF7ECFF03B030BDE7
:1009980044170808014A024B1A6070470B180808E8
:1009A800C4040020F8B506460D468F180024BD4241
:1009B8000CD0336815F8011B9B683046984700280F
:1009C80001DB0444F3E7002C08BF04462046F8BDC9
:1009D80070B505460C46084649B100F0B6FD2B68CF
:1009E800024621462846BDE87040DB68184770BDBE
:1009F80003689B681847012A98BF0A2230B50B463E
:100A08008BB000218DF824100DF12304B3FBF2F50F
:100A180005FB1233DBB2092B94BF30333733DBB21B
:100A2800214604F801392B46002DEFD1FFF7D0FFFE
:100A38000BB030BD10B422B90368C9B29B6810BCB2
:100A48001847D2B210BCFFF7D6BFFFF7F3BF704705
:100A580010B50446FFF71DFB204610BD70B50446CF
:100A68000E46074B0025036040F80C5FFFF778FD42
:100A780030462671FFF70CFEA560204670BD00BF0A
:100A88003C1808080079FFF70BBE10B5044600684B
:100A9800FFF7A6FE204610BD10B50446006808B151
:100AA800FFF79EFE00232360A360636010BD38B586
:100AB80004460D4600680131FFF79AFE10B184E83C
:100AC8002100012038BD10B50368044613B14368FE
:100AD8008B4207D22046FFF7EAFF20B1A3680BB983
:100AE80022681370012010BD70B50E4611460446E9
:100AF8001546FFF7E8FF18B92046FFF7CDFF09E0D4
:100B08002A463146A560206800F002FD2268A368E5
:100B18000021D154204670BD38B500230446036037
:100B28004360836003730D4639B1084600F00DFD3C
:100B3800294602462046FFF7D7FF204638BD88429F
:100B480010B50B46044607D0096819B19A68FFF733
:100B5800CBFF01E0FFF7A0FF204610BD10B504460B
:100B680000230360436083600373FFF7E8FF2046B8
:100B780010BD38B505460C4641B1084600F0E5FC05
:100B8800214602462846FFF7AFFF01E0FFF784FF42
:100B9800284638BD08B582680B4612B919B9012034
:100BA80008BD11B90368187802E0006800F0C3FCBA
:100BB800B0FA80F0400908BD10B5144683688A6809
:100BC8009B1AA3420AD3006858B1096841B120446E
:100BD80000F0C3FCB0FA80F0400910BD002010BD41
:100BE800084610BD82688B689A4202D30022FFF73C
:100BF800E3BF0020704783688B4203D9006810B1B7
:100C0800405C704700207047FFF7F5BF2DE9F041C1
:100C18001C469A4288BF13460E46154688BF25468D
:100C28000D4988BF1C460746FFF776FFB1688D421D
:100C38000FD88C4228BF0C463368002213F8048072
:100C48001A55316838462944FFF793FF336803F88B
:100C580004803846BDE8F0816617080810B50446D8
:100C68008B68FFF7D3FF204610BD006808B100F07D
:100C78003DBC70470020FFF78BBD0000024B1A688F
:100C8800024B1A60704700BF00040020C80400200F
:100C9800704741747047007CFFF742BD007CFFF746
:100CA80017BD007CFFF724BD007CFFF719BD007C51
:100CB800FFF726BD10B50446FFF7EBF9204610BD37
:100CC80070B5457C04460E4625B9007CFFF728FD23
:100CD800002805DD3146207CBDE87040FFF7F0BCF8
:100CE800284670BD10B504460846114600226260C9
:100CF8004FF47A72A260054A20742260012262745D
:100D08001A46FFF7D5FC204610BD00BF7818080822
:100D1800007CFFF7FDBC000038B50C4D296811F0C8
:100D2800010411D12846FFF7B6F968B1084A2146EF
:100D3800084B0948FFF7D6FF2846FFF7B1F9074ADD
:100D48000749054800F084FA034838BD64050020C7
:100D580068050020E0040020CC0400206C0400207A
:100D6800990C08084174704770470021007CFFF710
:100D7800F7BC0121007CFFF7F3BC007CFFF7E8BC5F
:100D8800007CFFF7DDBC38B50446007C0D46FFF754
:100D9800DFFC002801DC607C20B12946207CFFF7BD
:100DA800E7FC012038BD007CFFF7EABC10B504461B
:100DB800FFF76FF9204610BD10B5044600236360A5
:100DC8004FF47A73A360054B08462360012321740E
:100DD80063741146FFF7ACFC204610BDA81808083C
:100DE80010B504461422002100F09DFB054B204657
:100DF8006360054BE36040F2011323818123238262
:100E080010BD00BF71060020F005002030B50E4D62
:100E180087B001A8FFF7E4FF296811F0010410D199
:100E28002846FFF738F960B101AA21460748FFF7BD
:100E3800C3FF2846FFF734F9054A0649034800F07E
:100E480007FA024807B030BDEC05002074070020FF
:100E58006C040020710D080810B504461422002106
:100E680000F061FB054B20466360054BE36040F2F0
:100E7800011323818123238210BD00BF2408002091
:100E88008C07002010B50E4C86B001A8FFF7E4FFD0
:100E98002368DB0710D42046FFF7FDF860B101AAEC
:100EA80001210848FFF788FF2046FFF7F9F8064AAE
:100EB8000649044800F0CCF9024806B010BD00BF4E
:100EC80088070020100800206C040020710D080815
:100ED80008B5184B33B1FFF799FF03681B699847AA
:100EE80000281EDC144B33B1FFF716FF03681B699B
:100EF8009847002818DC114B0BB1AFF30080104B5A
:100F08000BB1AFF300800F4B0BB1AFF300800E4B6A
:100F18007BB1FFF7B7FF03681B699847002806DC19
:100F280008BDAFF30080DDE7AFF30080E3E7AFF380
:100F3800008008BD00000000000000000000000064
:100F480000000000000000000000000008B5FFF7E6
:100F5800BFFFFFF715FB014B186008BD30090020E3
:100F68000248034A0349121A00F0D2BA004002406C
:100F780004400240601A08080020704737B54368EB
:100F880004460A2B0ED0502B1CD1104B1D68CDB136
:100F9800037D4FF400710093C26800F1100380686C
:100FA800A84707E000F11003C2684FF40071806899
:100FB800FFF7E2FF30B1002220461146FFF7F8FBA9
:100FC800012000E0002003B030BD00BF2809002048
:100FD80038B50C4C0C4D2368AB420C4B0CBF0122AE
:100FE80000221A7002D0FFF7BBFF2560084B1BB127
:100FF800FFF7BEFAAFF30080BDE83840002105488E
:10100800FFF7CEBB004002401E1C279A2C09002087
:1010180000000000850F080808B5024B1B681B6814
:10102800019308BD9C01020808B5024B1B685B6868
:10103800019308BD9C01020808B5024B1B689B6818
:10104800019308BD9C01020810B504460F48FFF73C
:1010580019FD28B1A4F10D03022B01D8002010BD01
:1010680000F090F8FFF75AFC08B1012CF6D9FFF709
:1010780053FEFFF74DFE18B1A4F11203012BEDD971
:101088002E2C8CBF0020012010BD00BF5409002069
:101098002E2838B504460D460AD8FF2908D0FFF790
:1010A800D3FF28B129462046BDE83840FFF780BA6B
:1010B80038BD38B504460D46FFF782FAFF2810D030
:1010C800062804D84D2323FA00F0C30709D4204684
:1010D800FFF7BAFF28B129462046BDE83840FFF798
:1010E80077BA38BD10B50446FFF76AFA0438C0B2BB
:1010F800012808D92046FFF7A7FF20B12046BDE800
:101108001040FFF76DBA002010BD10B5044609283D
:101118009CBF0A34A4B22046FFF796FF50B10321C2
:101128002046FFF73DFA032804D12046BDE81040C9
:10113800FFF766BA002010BD38B504460D46FFF724
:1011480083FFF0B104212046FFF72AFA042805D1CD
:10115800A9B22046BDE83840FFF74ABA0221204626
:10116800FFF71EFA02280CD12046FFF729FA0128BA
:1011780001D0042805D129462046BDE83840FFF7AC
:1011880047BA38BD38B50B4D296811F001040FD1A5
:101198002846FEF780FF58B121460748FFF7ACFB09
:1011A8002846FEF77DFF054A0549034800F050F838
:1011B800014838BD34090020380900206C0400209B
:1011C800AB08080813B5084C00231A4619460093C3
:1011D8002046FFF7D3FB2046044A054902B0BDE884
:1011E800104000F035B800BF4C0900206C04002006
:1011F8002D09080870B5114E114D124C00213046CA
:10120800FFF72CFC3046104E2A46214600F020F805
:1012180001213046FFF722FC30460C4E2A46214673
:1012280000F016F802213046FFF718FC2A4621463E
:101238003046BDE8704000F00BB800BF54090020EC
:101248006C040020570A080864090020740900206B
:101258000B460146184600F04DB90000244B1A68A9
:10126800D0075CBF01221A60224B1A68D1075CBF05
:1012780001221A60204B1A68D2075CBF01221A604B
:101288001E4B1A68D0075CBF01221A601C4B1A68F3
:10129800D1075CBF01221A601A4B1A68D2075CBFDB
:1012A80001221A60184B1A68D0075CBF01221A6025
:1012B800164B1A68D1075CBF01221A60144B1A68D2
:1012C800D2075CBF01221A60124B1A68D0075CBFB4
:1012D80001221A60104B1A68D1075CBF01221A60FC
:1012E8000E4B1A68D2075CBF01221A60704700BF14
:1012F800B0090020AC090020A8090020A40900209A
:10130800A00900209C0900209809002094090020C9
:10131800900900208C0900208809002084090020F9
:10132800184B1A68D1075CBF01221A60164B1A685D
:10133800D2075CBF01221A60144B1A68D0075CBF41
:1013480001221A60124B1A68D1075CBF01221A6089
:10135800104B1A68D2075CBF01221A600E4B1A683C
:10136800D0075CBF01221A600C4B1A68D1075CBF1A
:1013780001221A600A4B1A68D2075CBF01221A6060
:10138800704700BFD0090020CC090020C809002000
:10139800C4090020C0090020BC090020B8090020A9
:1013A800B4090020184B1A68D1075CBF01221A60E3
:1013B800164B1A68D2075CBF01221A60144B1A68D0
:1013C800D0075CBF01221A60124B1A68D1075CBFB4
:1013D80001221A60104B1A68D2075CBF01221A60FA
:1013E8000E4B1A68D0075CBF01221A600C4B1A68B2
:1013F800D1075CBF01221A600A4B1A68D2075CBF8A
:1014080001221A60704700BFF0090020EC09002093
:10141800E8090020E4090020E0090020DC09002098
:10142800D8090020D4090020244B1A68D0075CBFD3
:1014380001221A60224B1A68D1075CBF01221A6088
:10144800204B1A68D2075CBF01221A601E4B1A682B
:10145800D0075CBF01221A601C4B1A68D1075CBF19
:1014680001221A601A4B1A68D2075CBF01221A605F
:10147800184B1A68D0075CBF01221A60164B1A680D
:10148800D1075CBF01221A60144B1A68D2075CBFEF
:1014980001221A60124B1A68D0075CBF01221A6039
:1014A800104B1A68D1075CBF01221A600E4B1A68EC
:1014B800D2075CBF01221A60704700BF200A0020D3
:1014C8001C0A0020180A0020140A0020100A002014
:1014D8000C0A0020080A0020040A0020000A002044
:1014E800FC090020F8090020F40900200A22002144
:1014F80000F0CEB810B5054C13462CB10A4601468B
:101508000220AFF3008010BD204610BD000000008F
:1015180010B5431E0A44914204D011F8014B03F858
:10152800014FF8E710BD03460244934202D003F886
:10153800011BFAE7704710F8012B11F8013B012A4B
:1015480028BF9A42F7D0D01A7047034613F8012BE8
:10155800002AFBD1181A0138704730B582B1451EF0
:10156800013915F8013F11F8014FA34206D1EC43A8
:101578001444E04201D0002BF3D11C46181B30BDA7
:10158800104630BD2DE9F0470F4680463F48D0F859
:1015980000903D4615F8014B09EB0400407800F037
:1015A800080000F0FF0608B12F46F2E72D2C03D102
:1015B800BD1C7C78012603E02B2C04BF7C78BD1C65
:1015C80013B1102B0AD15BE0302C57D1287800F0EA
:1015D800DF0058284DD16C7810230235002E14BF37
:1015E8004FF0004C6FF0004CBCFBF3FA0027384674
:1015F80003FB1ACC09EB040E9EF801E01EF0040F61
:1016080001D0303C0BE01EF0030E1BD0BEF1010FE1
:101618000CBF4FF0370E4FF0570ECEEB0404A34229
:1016280010DDB7F1FF3F0AD0504506D801D1644517
:1016380003DC03FB0040012701E04FF0FF3715F8FA
:10164800014BD7E77B1C0CD1002E4FF0220314BFAF
:101658004FF000406FF00040C8F800302AB9BDE8EC
:10166800F08706B1404272B107B1691E1160BDE84A
:10167800F0873024002BB1D10823AFE70A23ADE768
:10168800302CA3D0AAE7BDE8F08700BF04040020EF
:1016980013460A46014602480068FFF773BF00BFB9
:1016A800680400201D0008085D0008088900080873
:1016B8008D0008080000000044004100420043007B
:1016C80048494748004C4F57005458005258006446
:1016D80069676974616C72656164006469676974DB
:1016E800616C777269746500616E616C6F677265B1
:1016F800616400616E616C6F677772697465000080
:1017080000000000000000000908080800000000B0
:1017180000000000AB080808F5080808CD0808080C
:10172800AD080808D5080808DD080808E50808080D
:10173800ED08080800000000000000003B09080848
:101748002D0908082F09080866006C6E00666E00EF
:10175800636F64650064657461696C000D0A002537
:101768003031307520005D20002564002C200028D1
:10177800293A2000205B00636F6465203D20002526
:10178800690064657461696C73203D20006261754D
:10179800640053657269616C005553425365726900
:1017A800616C31007479706500706172616D0063FD
:1017B8006D6400696400686E64007374726D00661D
:1017C800696C74006C766C0061646448616E646C6A
:1017D80065720072656D6F766548616E646C6572DE
:1017E80000656E756D48616E646C657273004A536E
:1017F8004F4E53747265616D4C6F6748616E646CCF
:10180800657200617070006E6F6E6500747261635E
:101818006500696E666F007761726E006572726F3F
:10182800720070616E696300616C6C0000000000FA
:1018380000000000570A0808590A08085A00252B12
:101848003033643A253032750025592D256D2D2504
:10185800645425483A254D3A2553257A0061736327
:1018680074696D65000000000000000000000000C1
:10187800990C0808BD0C0808C90C0808AD09080827
:10188800A50C0808B10C0808AB0C0808B70C080828
:101898009B0C08089F0C08080000000000000000CE
:1018A800710D0808B50D08088F0D0808AD0908085E
:1018B800890D0808730D08087B0D0808AF0D080886
:1018C800830D08086D0D0808002020202020202006
:1018D80020202828282828202020202020202020D8
:1018E80020202020202020202088101010101010E8
:1018F8001010101010101010100404040404040434
:1019080004040410101010101010414141414141CD
:1019180001010101010101010101010101010101AF
:1019280001010101101010101010424242424242BF
:10193800020202020202020202020202020202027F
:101948000202020210101010200000000000000027
:10195800000000000000000000000000000000007F
:10196800000000000000000000000000000000006F
:10197800000000000000000000000000000000005F
:10198800000000000000000000000000000000004F
:10199800000000000000000000000000000000003F
:1019A800000000000000000000000000000000002F
:1019B800000000000000000000000000000000001F
:1019C800000000000000000000000000000000000F
:1019D80000000000000000000000000000000000FF
:1019E80000000000000000000000000000000000EF
:1019F80000000000000000000000000000000000DF
:101A080000000000000000000000000000000000CE
:101A180000000000000000000000000000000000BE
:101A28000000000000000000000000003D0508085C
:101A3800150808089D0908087D0C0808850C080881
:101A4800CD110808FD1108086512080829130808AF
:081A5800AD1308083114080861
:041A60000000000082
:101A640065180808D018080800000000D4190808F0
:101A7400F4190808141A0808000000000000000007
:101A84000000000000000000C61608080000000066
:101A94000000000000000000000000000000000042
:101AA4000000000000000000000000000000000032
:101AB4000000000000000000000000000000000022
:0C1AC400000000000000000008040020EA
:101AD000FFFFFFFF0A0003000000010203040506E8
:101AE0000708090A0B0C0D0E0F101112131415160E
:0C1AF0001718191A1B1C1D1E1F202800AF
:041AFC0078563412D2
:0400000508080018CF
:00000001FF
