:02000004080AE8
:1000000000000A08A00C0A08000003000600050111
:0800100004020C0000000000D6
:10001800300B0A0809480A4908B5884205D0094A38
:10002800824202D0121A00F063FD0748074A0021F5
:10003800121A00F068FD064808BD00BF0003002042
:10004800740C0A0804030020040300204005002063
:100058004005002070B500F0D7FB074B074C1E4643
:10006800E41AA4080025A54204D056F8253098477C
:100078000135F8E770BD00BF0C0C0A08640C0A08CB
:1000880000F011B808B500F00FF8BDE8084000F01E
:10009800A5BB00F0BBB80078B0FA80F04009704703
:1000A80001230370704770477047000008B5094B7B
:1000B800002209491A7001230B7008490A70084A7E
:1000C8001370084B02221A7000F020F8064B1860D3
:1000D80008BD00BF0B030020100300200903002007
:1000E8000A030020080300200C03002008B5024B77
:1000F8001B685B68019308BD9C01060808B5024BA4
:100108001B685B69019308BD9C01060808B5024B92
:100118001B681B68019308BDB001060808B5024BAF
:100128001B68DB69019308BDB401060808B5024BDA
:100138001B685B68019308BDC401060808B5024B3B
:100148001B689B68019308BDC401060808B5024BEB
:100158001B68DB68019308BDC401060808B5024B9B
:100168001B689B69019308BDC401060808B5024BCA
:100178001B685B6A019308BDC401060808B5024BF9
:100188001B689B6A019308BDC401060808B5024BA9
:100198001B68DB6A019308BDC401060808B5024B59
:1001A8001B681B6B019308BDC401060808B5024B08
:1001B8001B685B6B019308BDC401060808B5024BB8
:1001C8001B681B6C019308BDC401060808B5024BE7
:1001D8001B685B6C019308BDC401060808B5024B97
:1001E8001B689B6C019308BDC401060808B5024B47
:1001F8001B685B68019308BDA401060808B5024B9B
:100208001B681B69019308BDC801060808B5024BA5
:100218001B685B68019308BDA0010608064B002215
:1002280006491A7001230B7005490A70054A1370B4
:10023800054B02221A707047140300201503002092
:10024800120300201303002011030020064B002294
:1002580006491A7001230B7005490A70054A137084
:10026800054B02221A707047190300201A03002058
:10027800170300201803002016030020064B002255
:1002880006491A7001230B7005490A70054A137054
:10029800054B02221A7070471E0300201F0300201E
:1002A8001C0300201D0300201B030020064B002216
:1002B80006491A7001230B7005490A70054A137024
:1002C800054B02221A7070472303002024030020E4
:1002D800210300202203002020030020064B0022D7
:1002E80006491A7001230B7005490A70054A1370F4
:1002F800054B02221A7070472803002029030020AA
:10030800260300202703002025030020704710B58E
:100318000446FFF7BEFE204610BDF8B50F4600F1B3
:100328000806051D002416F8011D38460A2200F0AB
:1003380096F8AE42044407D0002CF4D038462E215B
:1003480000F05EF80444EEE72046F8BD10B59DF8CD
:10035800084044EA032343EA024242EA01610423D3
:100368004160037510BD000037B50446044D0560B3
:100378009DF818500095FFF7E9FF204603B030BDFF
:10038800500B0A08064B002206491A7001230B700D
:1003980005490A70054A1370054B02221A70704706
:1003A8002D0300202E0300202B0300202C03002007
:1003B8002A030020F8B506460D468F180024BD42D2
:1003C8000CD0336830469B6815F8011B9847002805
:1003D80001DB0444F3E7002C08BF04462046F8BDBF
:1003E80070B505460C46084649B100F094FB2B68E9
:1003F800024621462846BDE87040DB68184770BDB4
:1004080003689B681847012A98BF0A2230B50B4633
:100418008BB000218DF824100DF12304B3FBF2F505
:1004280005FB1233DBB2092B94BF30333733DBB211
:10043800214604F801392B46002DEFD1FFF7D0FFF4
:100448000BB030BD10B52AB9BDE810400368C9B279
:100458009B681847D2B2BDE81040FFF7D4BFFFF73A
:10046800F1BF0000064B002206491A7001230B70E9
:1004780005490A70054A1370054B02221A70704725
:100488003203002033030020300300203103002012
:100498002F030020704710B50446FFF7FAFD2046E9
:1004A80010BD000010B50446044B017103600846F6
:1004B800FFF734FE0023A360204610BD680B0A082E
:1004C800064B002206491A7001230B7005490A7071
:1004D800054A1370054B02221A7070473703002033
:1004E80038030020350300203603002034030020A1
:1004F800064B002206491A7001230B7005490A7041
:10050800054A1370054B02221A7070473C030020FD
:100518003D0300203A0300203B030020390300205C
:10052800074B0020074A187001231370064A107001
:10053800064A1370064B02221A70FFF757BE00BF17
:1005480041030020420300203F0300204003002015
:100558003E030020064B002206491A7001230B7047
:1005680005490A70054A1370054B02221A70704734
:1005780046030020470300204403002045030020D1
:1005880043030020024B1A68024B1A60704700BFF1
:100598000003002048030020064B002206491A7079
:1005A80001230B7005490A70054A1370054B022296
:1005B8001A7070474F030020500300204D0300209D
:1005C8004E0300204C030020064B002206491A70F7
:1005D80001230B7005490A70054A1370054B022266
:1005E8001A7070475403002055030020520300205E
:1005F8005303002051030020704741747047007C6A
:10060800FFF7BCBD007CFFF7B9BD007CFFF7C6BD96
:10061800007CFFF7BBBD007CFFF7C8BD10B50446E2
:10062800FFF737FD204610BD70B5457C04460E46E1
:1006380025B9007CFFF7C2FD002805DD207C314686
:10064800BDE87040FFF792BD284670BD10B504465E
:10065800002060604FF47A70A06006482174206022
:1006680001206074084611461A46FFF777FD2046B8
:1006780010BD00BFA80B0A0838B50C4D296811F049
:10068800010411D12846FFF706FD68B12146084A42
:10069800084B0948FFF7DAFF2846FFF701FD06482F
:1006A8000649074A00F04CF9034838BDF00300201A
:1006B800F40300206C0300205803002001060A08F8
:1006C800040300200174704770470020FFF736BD0F
:1006D8000120FFF733BDFFF779BD08B5FFF726FD09
:1006E80008BD38B505460C46FFF770FD002801DC4B
:1006F800287C18B12046FFF729FD012038BDFFF7F7
:100708006DBD10B50446FFF7C4FC204610BD0000BF
:10071800002242604FF47A728260024A026001222B
:1007280002747047D80B0A0810B50A4C2368DB0717
:100738000ED42046FFF7AFFC50B10748FFF7E8FF9B
:100748002046FFF7ADFC04480449054A00F0F8F8D4
:10075800014810BD8C04002078040020D1060A0846
:10076800040300207047002001460246FFF746BDFB
:100778000348044B0449054A036000F0E1B800BF90
:1007880090040020080C0A086D070A0804030020DA
:1007980008B50F4B33B1FFF7C7FF03681B699847CC
:1007A80000280DDC0B4B33B1FFF766FF03681B69AC
:1007B8009847002807DC084B43B1AFF3008008BD19
:1007C800AFF30080EEE7AFF30080F4E708BD00BFA9
:1007D80000000000000000000000000008B5FFF75E
:1007E800D7FFFFF78BFC014B186008BD9C04002065
:1007F8000248034A0349121A00F07AB9004002403D
:1008080004400240700C0A0838B5094C094D2368A9
:100818005A1B53425341084A137013B9FFF7E8FFB4
:100828002560064B1BB1FFF761FCAFF3008038BDB4
:10083800004002401E1C279A94040020000000007B
:10084800064B002206491A7001230B7005490A70ED
:10085800054A1370054B02221A707047980400204D
:100868009904002096040020970400209504002095
:10087800064B002206491A7001230B7005490A70BD
:10088800054A1370054B02221A707047A304002012
:10089800A4040020A1040020A2040020A004002039
:1008A80013B5084C002100910A460B462046FFF775
:1008B8005BFD20460449054A02B0BDE8104000F03F
:1008C8003FB800BFA804002015030A08040300204D
:1008D800F8B5124B00211970114B01241C70114BF3
:1008E800114F1970114B02221C70114B114E124DF1
:1008F80038461A70FFF7D6FD3846104F2A4631465B
:1009080000F01EF821463846FFF7CCFD3846314640
:100918002A46BDE8F84000F013B800BFC304002021
:10092800C4040020C1040020C8040020C204002020
:10093800C00400209D040A0804030020D4040020F9
:1009480003460846194600F0C5B80000244B1A684B
:10095800D0075CBF01221A60224B1A68D1075CBF1E
:1009680001221A60204B1A68D2075CBF01221A6064
:100978001E4B1A68D0075CBF01221A601C4B1A680C
:10098800D1075CBF01221A601A4B1A68D2075CBFF4
:1009980001221A60184B1A68D0075CBF01221A603E
:1009A800164B1A68D1075CBF01221A60144B1A68EB
:1009B800D2075CBF01221A60124B1A68D0075CBFCD
:1009C80001221A60104B1A68D1075CBF01221A6015
:1009D8000E4B1A68D2075CBF01221A60704700BF2D
:1009E8000C05002008050020040500200005002053
:1009F800FC040020F8040020F4040020F004002087
:100A0800EC040020E8040020E4040020E0040020B6
:100A1800244B1A68D0075CBF01221A60224B1A685F
:100A2800D1075CBF01221A60204B1A68D2075CBF4D
:100A380001221A601E4B1A68D0075CBF01221A6097
:100A48001C4B1A68D1075CBF01221A601A4B1A683E
:100A5800D2075CBF01221A60184B1A68D0075CBF26
:100A680001221A60164B1A68D1075CBF01221A606E
:100A7800144B1A68D2075CBF01221A60124B1A681D
:100A8800D0075CBF01221A60104B1A68D1075CBFFF
:100A980001221A600E4B1A68D2075CBF01221A6045
:100AA800704700BF3C0500203805002034050020B1
:100AB800300500202C0500202805002024050020F2
:100AC800200500201C050020180500201405002022
:100AD8001005002038B5054604480C46134620B1D9
:100AE800022029462246AFF3008038BD00000000EE
:100AF80010B5431E0A44914204D011F8014B03F883
:100B0800014FF8E710BD03460244934202D003F8B0
:100B1800011BFAE77047034613F8012B002AFBD1A3
:100B2800181A0138704700001D000A085D000A08FD
:100B380089000A088D000A08000000000000000073
:100B4800000000000000000023030A0815030A083B
:100B580017030A0800000000000000000000000061
:100B68009D040A089F040A085A00252B3033643A6A
:100B7800253032750025592D256D2D2564542548BD
:100B88003A254D3A2553257A0061736374696D657A
:100B9800000000000000000000000000000000004D
:100BA80001060A0825060A0831060A08BD030A08CC
:100BB8000D060A0819060A0813060A081F060A0875
:100BC80003060A0807060A080000000000000000E3
:100BD800D1060A080B070A08EB060A08BD030A082B
:100BE800E3060A08D3060A08D9060A0807070A0806
:100BF800DF060A08CD060A08000000000000000011
:100C08006F070A08B5000A0825020A0855020A08EB
:100C180085020A08B5020A08E5020A088D030A08CF
:100C28006D040A08C9040A08F9040A0829050A080B
:100C38005D050A088D050A08A1050A08D1050A08F4
:100C480079070A0849080A0879080A08A9080A0851
:100C5800D9080A0855090A08190A0A0800000000F4
:080C6800000000000000000084
:040C70000000000080
:040C7400910B0A08CE
:100C7800FFFFFFFF00000102030405060708090A39
:100C88000B0C0D0E0F101112131415161718191A34
:080C98001B1C1D1E1F2028007B
:040CA000785634123C
:04000005080A0018CD
:00000001FF
