:02000004080AE8
:1000000000000A088C190A08000004000600050117
:0800100004020D0000000000D5
:100018003C160A0809480A4908B5884205D0094A21
:10002800824202D0121A01F02BFA0748074A00212F
:10003800121A01F030FA064808BD00BF000300207C
:10004800F4180A086C0300206C030020CC0500207B
:10005800CC05002070B500F0C5FF074B074C1E46C5
:10006800E41AA4080025A54204D056F8253098477C
:100078000135F8E770BD00BF88180A08E4180A08B7
:1000880000F092B908B500F0B9F9BDE8084000F0F1
:1000980093BF00F035BB0078B0FA80F04009704794
:1000A8000123037070470000F0B5012185B00646B2
:1000B80000F0EAFDA0F13005072D044625D81649C1
:1000C800684600F069FD3046694600F0CBFD0746FA
:1000D800684600F01FFD0FB1ACB20EE00F4968464C
:1000E80000F05AFD3046694600F0BCFD05466846FA
:1000F80000F010FD65B1263CA4B22046032100F0B3
:10010800C9FF204600F0F0FF04E04FF0FF3001E0A7
:100118006FF0010005B0F0BD50160A0852160A0823
:10012800F0B5012185B0064600F0AEFDA0F130041F
:10013800072C45D8684631460322072300F0A6FD60
:100148006846244900F066FD0546684600F0E2FC72
:100158007DB9684631460322062300F097FD6846BC
:100168001D4900F057FD0746684600F0D3FC0FB95B
:1001780029E001251949684600F00EFD3046694618
:1001880000F070FD0746684600F0C4FC6FB91449DA
:10019800684600F001FD3046694600F063FD0646FA
:1001A800684600F0B7FC8EB10A34A4B2204601219B
:1001B80000F070FF2046294600F07DFF012007E08F
:1001C8004FF0FF3004E06FF0010001E06FF0020033
:1001D80005B0F0BD54160A0859160A0850160A0840
:1001E80052160A087FB50121054600F04DFDA0F121
:1001F8003003072B04461FD81449684600F0CCFC8E
:100208002846694600F02EFD0646684600F082FC46
:10021800AEB90F49684600F0BFFC2846694600F0B1
:1002280021FD0546684600F075FC5DB1A4F1260085
:1002380080B200F06CFF07E04FF0FF3004E06FF091
:10024800020001E06FF0010004B070BD50160A080A
:1002580052160A08F0B5044689B0684621460322BA
:1002680000F03CFD04A821460022022300F00EFD08
:1002780004A8494900F0CEFC054604A800F04AFC51
:10028800002D58D12A4604A82146022300F0FEFC7E
:1002980004A8424900F0BEFC054604A800F03AFC58
:1002A800002D61D12046012100F0EEFCA0F13006BE
:1002B800072E054665D83A4904A800F06DFC20468B
:1002C80004A900F0CFFC074604A800F023FC57B1AE
:1002D800B4B20121204600F0DDFE684600F005FDBD
:1002E80081B2204649E02F4904A800F055FC204679
:1002F80004A900F0B7FC064604A800F00BFC5EB1A8
:10030800263DADB20121284600F0C4FE684600F043
:10031800ECFC81B2284630E004A82146324602238C
:1003280000F0B4FC04A81C4900F074FC054604A8BD
:1003380000F0F0FB4DB10121132000F0ABFE684640
:1003480000F0D3FC81B2132017E0214604A82A4606
:10035800022300F09BFC04A8104900F05BFC044653
:1003680004A800F0D7FB7CB10121122000F092FE16
:10037800684600F0BAFC81B2122000F0DFFE0124CA
:1003880004E04FF0FF3401E06FF00104684600F02C
:10039800C1FB204609B0F0BD5D160A0860160A08C0
:1003A80050160A0852160A0810B50B4C0B4920467D
:1003B8000B4A00F0FBF920460A490B4A00F0F6F90F
:1003C80020460A490A4A00F0F1F92046BDE81040E3
:1003D8000849094A00F0EAB989070A08B1000A0879
:1003E80063160A0829010A086F160A08ED010A08A7
:1003F8007C160A085D020A0887160A08704700007A
:1004080038B5144B00241C70134B01251D70134B79
:1004180002221C70124B1D70124B1A7000F056F815
:10042800114B186000F0FAFD22462346062100F021
:10043800FDFD00F0F3FD22462346032100F0FEFDFA
:1004480029462246052000F043F92846BDE83840F1
:1004580000F036B9730300207803002071030020F0
:1004680072030020700300207403002008B5094BB4
:10047800002209491A7001230B7008490A70084ABA
:100488001370084B02221A7000F020F8064B18600F
:1004980008BD00BF7D0300207B0300207A030020F5
:1004A8007C030020790300208003002008B5024B5C
:1004B8001B685B68019308BD9C01060808B5024BE0
:1004C8001B685B69019308BD9C01060808B5024BCF
:1004D8001B681B68019308BDB001060808B5024BEC
:1004E8001B685B68019308BDB001060808B5024B9C
:1004F8001B689B68019308BDB001060808B5024B4C
:100508001B68DB68019308BDB001060808B5024BFB
:100518001B681B69019308BDB001060808B5024BAA
:100528001B685B69019308BDB001060808B5024B5A
:100538001B689B6A019308BDB001060808B5024B09
:100548001B681B6B019308BDB001060808B5024B78
:100558001B685B6B019308BDB001060808B5024B28
:100568001B681B6E019308BDAC01060808B5024B59
:100578001B685B6E019308BDAC01060808B5024B09
:100588001B689B6E019308BDAC01060808B5024BB9
:100598001B68DB6E019308BDAC01060808B5024B69
:1005A8001B681B6F019308BDAC01060808B5024B18
:1005B8001B685B6F019308BDAC01060808B5034BC7
:1005C8001B68D3F88030019308BD0000AC01060811
:1005D80008B5024B1B68DB69019308BDB401060826
:1005E80008B5024B1B681B6A019308BDB4010608D5
:1005F80008B5024B1B685B68019308BDC401060877
:1006080008B5024B1B689B68019308BDC401060826
:1006180008B5024B1B68DB68019308BDC4010608D6
:1006280008B5024B1B689B69019308BDC401060805
:1006380008B5024B1B685B6A019308BDC401060834
:1006480008B5024B1B689B6A019308BDC4010608E4
:1006580008B5024B1B68DB6A019308BDC401060894
:1006680008B5024B1B681B6B019308BDC401060843
:1006780008B5024B1B685B6B019308BDC4010608F3
:1006880008B5024B1B689B6B019308BDC4010608A3
:1006980008B5024B1B681B6C019308BDC401060812
:1006A80008B5024B1B685B6C019308BDC4010608C2
:1006B80008B5024B1B689B6C019308BDC401060872
:1006C80008B5024B1B685B68019308BDA4010608C6
:1006D80008B5024B1B689B6B019308BDA401060873
:1006E80008B5024B1B685B68019308BDCC0106087E
:1006F80008B5024B1B681B69019308BDC8010608B1
:1007080008B5024B1B685B68019308BDA001060889
:1007180008B5024B1B689B68019308BDA001060839
:10072800064B002206491A7001230B7005490A700E
:10073800054A1370054B02221A7070478703002080
:1007480088030020850300208603002084030020FE
:10075800064B002206491A7001230B7005490A70DE
:10076800054A1370054B02221A7070478C0300204B
:100778008D0300208A0300208B03002089030020BA
:1007880010B588B00446684600F006FA694604A821
:1007980000F024FA04A8A047044604A800F0BAF917
:1007A800684600F0B7F9204608B010BDF0B5074616
:1007B8000E46154685B0102422466846002100F0F2
:1007C8006AFE22466846002100F065FE0020694660
:1007D8000246ADF80040029703960195FFF780FFA7
:1007E80005B0F0BD064B002206491A7001230B70B4
:1007F80005490A70054A1370054B02221A707047A2
:1008080091030020920300208F0300209003002012
:100818008E030020064B002206491A7001230B7034
:1008280005490A70054A1370054B02221A70704771
:1008380096030020970300209403002095030020CE
:10084800930300207047F8B5064615460C468F18E6
:10085800BC4206D0336830469B6814F8011B9847A1
:10086800F6E72846F8BD007C0022FFF777BE007C3B
:100878000021FFF77BBE007C0021FFF77FBE007CD4
:100888000021FFF783BE007C0021FFF787BE10B56B
:100898000446FFF7FEFB204610BD000010B50446D5
:1008A8004FF47A728260054A002343600260017443
:1008B80008461946FFF782FE204610BDA0160A0812
:1008C800007C0021FFF772BE064B002206491A7011
:1008D80001230B7005490A70054A1370054B022263
:1008E8001A7070479B0300209C0300209903002086
:1008F8009A03002098030020704710B50446FFF7BC
:10090800C8FB204610BDF8B50F4600F10806051DC6
:10091800002416F8011D38460A2200F096F8AE4267
:10092800044407D0002CF4D038462E2100F05EF89D
:100938000444EEE72046F8BD10B59DF8084044EAA7
:10094800032343EA024242EA01610423416003753A
:1009580010BD000037B50446044D05609DF81850D9
:100968000095FFF7E9FF204603B030BDC8160A0816
:10097800064B002206491A7001230B7005490A70BC
:10098800054A1370054B02221A707047A003002015
:10099800A10300209E0300209F0300209D03002048
:1009A800F8B506460D468F180024BD420CD03368B2
:1009B80030469B6815F8011B9847002801DB044462
:1009C800F3E7002C08BF04462046F8BD70B505467D
:1009D8000C46084649B100F078FD2B6802462146CE
:1009E8002846BDE87040DB68184770BD03689B68FF
:1009F8001847012A98BF0A2230B50B468BB0002150
:100A08008DF824100DF12304B3FBF2F505FB123326
:100A1800DBB2092B94BF30333733DBB2214604F8FD
:100A280001392B46002DEFD1FFF7D0FF0BB030BDB9
:100A380010B52AB9BDE810400368C9B29B681847C9
:100A4800D2B2BDE81040FFF7D4BFFFF7F1BF0000F6
:100A5800064B002206491A7001230B7005490A70DB
:100A6800054A1370054B02221A707047A50300202F
:100A7800A6030020A3030020A4030020A203002053
:100A8800704710B50446FFF704FB204610BD000070
:100A980010B50446044B017103600846FFF798FD42
:100AA8000023A360204610BDE0160A080079FFF76E
:100AB80097BD0000064B002206491A7001230B70EF
:100AC80005490A70054A1370054B02221A707047CF
:100AD800AA030020AB030020A8030020A9030020DC
:100AE800A7030020064B002206491A7001230B7049
:100AF80005490A70054A1370054B02221A7070479F
:100B0800AF030020B0030020AD030020AE03002097
:100B1800AC03002010B504460068FFF7F1FD20463D
:100B280010BD10B50446006808B1FFF7E9FD0023C1
:100B38002360A360636010BD38B504460D460068A5
:100B48000131FFF7E5FD10B184E82100012038BD2F
:100B580010B50368044613B143688B4207D2204698
:100B6800FFF7EAFF20B1A3680BB9226813700120D0
:100B780010BD70B50E46114604461546FFF7E8FF4E
:100B880018B92046FFF7CDFF04E0A560206831467C
:100B980000F093FC204670BD38B50023044603607E
:100BA8004360836003730D4639B1084600F08DFC3D
:100BB800294602462046FFF7DCFF204638BD88421A
:100BC80010B50B46044607D0096819B19A68FFF7B3
:100BD800D0FF01E0FFF7A5FF204610BD10B5044681
:100BE80000230360436083600373FFF7E8FF204638
:100BF80010BD38B505460C4641B1084600F065FC05
:100C0800214602462846FFF7B4FF01E0FFF789FFB7
:100C1800284638BD08B582680B4612B919B90120B3
:100C280008BD11B90368187802E0006800F03BFCC1
:100C3800B0FA80F0400908BD10B5144683688A6888
:100C48009B1A9C420AD8006858B1096841B12044EF
:100C580000F043FCB0FA80F0400910BD002010BD40
:100C6800084610BD82688B689A4202D30022FFF7BB
:100C7800E3BF002070478368994203D2006810B12F
:100C8800405C704700207047FFF7F5BF2DE9F04141
:100C98001C469A4288BF13460E46154688BF25460D
:100CA8000D4988BF1C460746FFF776FFB1688D429D
:100CB8000FD88C4228BF0C463368002213F80480F2
:100CC8001A55316838462944FFF793FF336803F80B
:100CD80004803846BDE8F08153160A0810B504466A
:100CE8008B68FFF7D3FF204610BD006808B100F0FD
:100CF800B5BB7047074B0020074A187001231370D3
:100D0800064A1070064A1370064B02221A70FFF743
:100D1800D7BC00BFB4030020B5030020B2030020F5
:100D2800B3030020B1030020064B002206491A70C5
:100D380001230B7005490A70054A1370054B0222FE
:100D48001A707047B9030020BA030020B7030020C7
:100D5800B8030020B6030020024B1A68024B1A6041
:100D6800704700BF00030020BC030020064B002290
:100D780006491A7001230B7005490A70054A137059
:100D8800054B02221A707047C3030020C4030020D9
:100D9800C1030020C2030020C0030020064B00222C
:100DA80006491A7001230B7005490A70054A137029
:100DB800054B02221A707047C8030020C90300209F
:100DC800C6030020C7030020C503002070474174F4
:100DD8007047007CFFF734BC007CFFF731BC007C17
:100DE800FFF73EBC007CFFF733BC007CFFF740BC3C
:100DF80010B50446FFF74DF9204610BD70B5457C87
:100E080004460E4625B9007CFFF742FC002805DDA4
:100E1800207C3146BDE87040FFF70ABC284670BD0B
:100E280010B50446002060604FF47A70A060064850
:100E38002174206001206074084611461A46FFF7A5
:100E4800EFFB204610BD00BF20170A08007CFFF703
:100E580017BC000038B50C4D296811F0010411D1F8
:100E68002846FFF718F968B12146084A084B09488F
:100E7800FFF7D6FF2846FFF713F906480649074A41
:100E880000F022FA034838BD6404002068040020FA
:100E9800E0030020CC030020D50D0A086C030020D5
:100EA8000174704770470020FFF7AABB0120FFF7C5
:100EB800A7BBFFF7F5BB08B5FFF79AFB08BD38B528
:100EC80005460C46FFF7ECFB002801DC287C18B12E
:100ED8002046FFF79DFB012038BDFFF7E9BB10B5A1
:100EE8000446FFF7D6F8204610BD000000224260F5
:100EF8004FF47A728260024A0260012202747047DB
:100F080050170A0810B50A4C2368DB070ED4204690
:100F1800FFF7C1F850B10748FFF7E8FF2046FFF791
:100F2800BFF804480449054A00F0CEF9014810BD4D
:100F380000050020EC040020AD0E0A086C03002018
:100F48007047002001460246FFF7D2BB0348044B16
:100F58000449054A036000F0B7B900BF0405002042
:100F680080170A08490F0A086C03002008B50F4BC0
:100F780033B1FFF7C7FF03681B69984700280DDCEA
:100F88000B4B33B1FFF766FF03681B6998470028CE
:100F980007DC084B43B1AFF3008008BDAFF3008016
:100FA800EEE7AFF30080F4E708BD00BF00000000E3
:100FB800000000000000000008B5FFF7D7FFFFF7AA
:100FC8007DFA014B186008BD100500200248034A4D
:100FD8000349121A00F054BA00400240044002408B
:100FE800F0180A0838B5094C094D23685A1B5342B2
:100FF8005341084A137013B9FFF7E8FF2560064B01
:101008001BB1FFF753FAAFF3008038BD0040024030
:101018001E1C279A080500200000000008B5024B96
:101028001B681B68019308BD9C01020808B5024BA8
:101038001B685B68019308BD9C01020808B5024B58
:101048001B689B68019308BD9C01020810B5044603
:101058000F48FFF72BFD28B1A4F10D03022B01D88F
:10106800002010BD00F0C0F8FFF72AFC08B1012CE1
:10107800F6D9FFF7EFFEFFF7E9FE18B1A4F1120366
:10108800012BEDD9172C8CBF0020012010BD00BF0B
:1010980054050020172838B505460C460AD8FF29FC
:1010A80008D0FFF7D3FF28B128462146BDE83840CD
:1010B800FFF71CBA38BD38B504460D46FFF71EFACF
:1010C800FF2810D078B1831EDBB2012B0BD906287C
:1010D80009D02046FFF7BAFF28B120462946BDE8C7
:1010E8003840FFF713BA38BD10B50446FFF706FAC3
:1010F8000438C0B2012808D92046FFF7A7FF20B15D
:101108002046BDE81040FFF709BA002010BD10B511
:10111800044609289CBF0A34A4B22046FFF796FF6C
:1011280050B120460321FFF7D9F9032804D12046FE
:10113800BDE81040FFF702BA002010BD38B50446DC
:101148000D46FFF783FFE8B120460421FFF7C6F9F3
:101158000428204604D12946BDE83840FFF7E6B9FF
:101168000221FFF7BBF902280CD12046FFF7C6F988
:10117800012801D0042805D12046E9B2BDE838404D
:10118800FFF7E4B938BD0000064B002206491A7083
:1011980001230B7005490A70054A1370054B02229A
:1011A8001A7070470C0500200D0500200A05002064
:1011B8000B05002009050020064B002206491A707D
:1011C80001230B7005490A70054A1370054B02226A
:1011D8001A70704717050020180500201505002013
:1011E800160500201405002038B50B4D296811F0AC
:1011F80001040FD12846FEF74EFF58B12146074893
:10120800FFF74CFB2846FEF74BFF04480449054A04
:1012180000F05AF8014838BD1C05002020050020C0
:101228004D080A086C03002013B5084C00210091F2
:101238000A460B462046FFF78DFB20460449054A1F
:1012480002B0BDE8104000F03FB800BF34050020F0
:1012580001090A086C030020F8B5124B0021197027
:10126800114B01241C70114B114F1970114B0222A4
:101278001C70114B114E124D38461A70FFF708FCBE
:101288003846104F2A46314600F01EF821463846A7
:10129800FFF7FEFB384631462A46BDE8F84000F025
:1012A80013B800BF4F050020500500204D05002051
:1012B800540500204E0500204C050020890A0A0824
:1012C8006C0300206005002003460846194600F01C
:1012D800C9B80000244B1A68D0075CBF01221A6005
:1012E800224B1A68D1075CBF01221A60204B1A688A
:1012F800D2075CBF01221A601E4B1A68D0075CBF78
:1013080001221A601C4B1A68D1075CBF01221A60BF
:101318001A4B1A68D2075CBF01221A60184B1A6868
:10132800D0075CBF01221A60164B1A68D1075CBF50
:1013380001221A60144B1A68D2075CBF01221A6096
:10134800124B1A68D0075CBF01221A60104B1A684A
:10135800D1075CBF01221A600E4B1A68D2075CBF26
:1013680001221A60704700BF9805002094050020EC
:10137800900500208C0500208805002084050020A9
:10138800800500207C0500207805002074050020D9
:10139800700500206C050020244B1A68D0075CBF3C
:1013A80001221A60224B1A68D1075CBF01221A6019
:1013B800204B1A68D2075CBF01221A601E4B1A68BC
:1013C800D0075CBF01221A601C4B1A68D1075CBFAA
:1013D80001221A601A4B1A68D2075CBF01221A60F0
:1013E800184B1A68D0075CBF01221A60164B1A689E
:1013F800D1075CBF01221A60144B1A68D2075CBF80
:1014080001221A60124B1A68D0075CBF01221A60C9
:10141800104B1A68D1075CBF01221A600E4B1A687C
:10142800D2075CBF01221A60704700BFC8050020C0
:10143800C4050020C0050020BC050020B805002018
:10144800B4050020B0050020AC050020A805002048
:10145800A4050020A00500209C05002000210A22E8
:1014680000F0DAB838B5054604480C46134620B1F2
:10147800022029462246AFF3008038BD0000000054
:1014880010B5431E0A44914204D011F8014B03F8E9
:10149800014FF8E710BD03460244934202D003F817
:1014A800011BFAE7704710F8012B11F8013B012ADC
:1014B80028BF9A42F7D0D01A7047034611F8012B7B
:1014C80003F8012B002AF9D17047034613F8012BC2
:1014D800002AFBD1181A0138704770B5A2B1451E11
:1014E80001396B7811F8014F6E1CA34206D16FF0D9
:1014F8000104641B1444E04202D11C46181B70BD51
:101508003546002BEDD1F8E7104670BD2DE9F047C0
:101518000F46404CD4F800903D4615F801EB09EB16
:101528000E04667806F0080404F0FF060CB12F4696
:10153800F2E774462D2C03D1BD1C7C78012603E00C
:101548002B2C04BF7C78BD1C13B1102B0AD15AE098
:10155800302C56D12C7804F0DF04582C4CD16C7800
:1015680010230235002E14BF4FF000486FF00048DA
:10157800B8FBF3FA0027BE4603FB1A8809EB040CF4
:101588009CF801C01CF0040F01D0303C0BE01CF0AB
:10159800030C1BD0BCF1010F0CBF4FF0370C4FF000
:1015A800570CCCEB04049C4210DAB7F1FF3F0AD089
:1015B800D64506D801D1444503DC03FB0E4E01276E
:1015C80001E04FF0FF3715F8014BD7E77C1C734655
:1015D8000AD1002E4FF0220114BF4FF000436FF0E4
:1015E800004301602AB911E00EB1CEF100036AB1DF
:1015F80007B1691E116009E03024002BB2D108231D
:10160800B0E70A23AEE7302CACD1A3E71846BDE813
:10161800F08700BF0403002030B505460C4613468A
:10162800034A294610682246BDE83040FFF76EBFDE
:10163800680300201D000A085D000A0889000A08DE
:101648008D000A080000000044004100484947484E
:10165800004C4F5700545800525800646967697429
:10166800616C72656164006469676974616C777242
:1016780069746500616E616C6F67726561640061B1
:101688006E616C6F67777269746500000000000016
:1016980000000000000000004D080A0897080A082A
:1016A8006F080A084F080A0877080A087F080A0816
:1016B80087080A088F080A080000000000000000D8
:1016C8000F090A0801090A0803090A0800000000AE
:1016D8000000000000000000890A0A088B0A0A08B6
:1016E8005A00252B3033643A253032750025592DA0
:1016F800256D2D25645425483A254D3A2553257ADC
:101708000061736374696D650000000000000000EB
:101718000000000000000000D50D0A08F90D0A08B5
:10172800050E0A08A9090A08E10D0A08ED0D0A08BC
:10173800E70D0A08F30D0A08D70D0A08DB0D0A0899
:101748000000000000000000AD0E0A08E70E0A08BD
:10175800C70E0A08A9090A08BF0E0A08AF0E0A0828
:10176800B50E0A08E30E0A08BB0E0A08A90E0A08F5
:1017780000000000000000004B0F0A080020202095
:101788002020202020202828282828202020202029
:1017980020202020202020202020202020881010F9
:1017A8001010101010101010101010101004040455
:1017B8000404040404040410101010101010414113
:1017C8004141414101010101010101010101010101
:1017D8000101010101010101101010101010424215
:1017E80042424242020202020202020202020202D1
:1017F8000202020202020202101010102000000071
:1018080000000000000000000000000000000000D0
:1018180000000000000000000000000000000000C0
:1018280000000000000000000000000000000000B0
:1018380000000000000000000000000000000000A0
:101848000000000000000000000000000000000090
:101858000000000000000000000000000000000080
:101868000000000000000000000000000000000070
:10187800000000000000000000000000004300001D
:1018880009040A0875040A0829070A0859070A08F2
:10189800ED070A081D080A08D1080A0879090A0884
:1018A800590A0A08BD0A0A08ED0A0A08FD0C0A08BE
:1018B800310D0A08610D0A08750D0A08A50D0A08F8
:1018C800550F0A0891110A08C1110A0831120A08AD
:1018D80061120A08DD120A08A1130A0800000000B4
:0818E8000000000000000000F8
:0418F00000000000F4
:1018F40009170A0884170A08000000000000000005
:1019040000000000000000000000000000000000D3
:10191400000000000000000085180A080000000014
:1019240000000000000000000000000000000000B3
:1019340000000000000000000000000000000000A3
:101944000000000000000000000000000000000093
:0C1954000000000000000000080300205C
:10196000FFFFFFFF0600030000000102030405065D
:101970000708090A0B0C0D0E0F101112131415167F
:0C1980001718191A1B1C1D1E1F20280020
:04198C007856341243
:04000005080A0018CD
:00000001FF
